{
  "_format": "hh-sol-artifact-1",
  "contractName": "G8SIDO",
  "sourceName": "contracts/G8SIDO.sol",
  "abi": [
    {
      "inputs": [
        {
          "internalType": "address",
          "name": "g8sToken_",
          "type": "address"
        },
        {
          "internalType": "address",
          "name": "pusdToken_",
          "type": "address"
        },
        {
          "internalType": "uint256",
          "name": "pricePUSD_",
          "type": "uint256"
        },
        {
          "internalType": "uint256",
          "name": "tokensForSale_",
          "type": "uint256"
        },
        {
          "internalType": "uint256",
          "name": "startTime_",
          "type": "uint256"
        },
        {
          "internalType": "uint256",
          "name": "endTime_",
          "type": "uint256"
        }
      ],
      "stateMutability": "nonpayable",
      "type": "constructor"
    },
    {
      "inputs": [],
      "name": "EnforcedPause",
      "type": "error"
    },
    {
      "inputs": [],
      "name": "ExpectedPause",
      "type": "error"
    },
    {
      "inputs": [
        {
          "internalType": "address",
          "name": "owner",
          "type": "address"
        }
      ],
      "name": "OwnableInvalidOwner",
      "type": "error"
    },
    {
      "inputs": [
        {
          "internalType": "address",
          "name": "account",
          "type": "address"
        }
      ],
      "name": "OwnableUnauthorizedAccount",
      "type": "error"
    },
    {
      "inputs": [],
      "name": "ReentrancyGuardReentrantCall",
      "type": "error"
    },
    {
      "anonymous": false,
      "inputs": [
        {
          "indexed": true,
          "internalType": "address",
          "name": "previousOwner",
          "type": "address"
        },
        {
          "indexed": true,
          "internalType": "address",
          "name": "newOwner",
          "type": "address"
        }
      ],
      "name": "OwnershipTransferred",
      "type": "event"
    },
    {
      "anonymous": false,
      "inputs": [
        {
          "indexed": false,
          "internalType": "address",
          "name": "account",
          "type": "address"
        }
      ],
      "name": "Paused",
      "type": "event"
    },
    {
      "anonymous": false,
      "inputs": [
        {
          "indexed": false,
          "internalType": "uint256",
          "name": "oldPrice",
          "type": "uint256"
        },
        {
          "indexed": false,
          "internalType": "uint256",
          "name": "newPrice",
          "type": "uint256"
        }
      ],
      "name": "PriceUpdated",
      "type": "event"
    },
    {
      "anonymous": false,
      "inputs": [
        {
          "indexed": true,
          "internalType": "address",
          "name": "buyer",
          "type": "address"
        },
        {
          "indexed": false,
          "internalType": "uint256",
          "name": "pusdAmount",
          "type": "uint256"
        },
        {
          "indexed": false,
          "internalType": "uint256",
          "name": "tokensOut",
          "type": "uint256"
        },
        {
          "indexed": false,
          "internalType": "uint256",
          "name": "timestamp",
          "type": "uint256"
        }
      ],
      "name": "Purchased",
      "type": "event"
    },
    {
      "anonymous": false,
      "inputs": [
        {
          "indexed": false,
          "internalType": "address",
          "name": "account",
          "type": "address"
        }
      ],
      "name": "Unpaused",
      "type": "event"
    },
    {
      "inputs": [
        {
          "internalType": "uint256",
          "name": "tokensDesired",
          "type": "uint256"
        }
      ],
      "name": "buyTokens",
      "outputs": [],
      "stateMutability": "nonpayable",
      "type": "function"
    },
    {
      "inputs": [
        {
          "internalType": "uint256",
          "name": "pusdAmount",
          "type": "uint256"
        }
      ],
      "name": "buyWithPUSD",
      "outputs": [],
      "stateMutability": "nonpayable",
      "type": "function"
    },
    {
      "inputs": [
        {
          "internalType": "address",
          "name": "",
          "type": "address"
        }
      ],
      "name": "contributions",
      "outputs": [
        {
          "internalType": "uint256",
          "name": "",
          "type": "uint256"
        }
      ],
      "stateMutability": "view",
      "type": "function"
    },
    {
      "inputs": [],
      "name": "endTime",
      "outputs": [
        {
          "internalType": "uint256",
          "name": "",
          "type": "uint256"
        }
      ],
      "stateMutability": "view",
      "type": "function"
    },
    {
      "inputs": [],
      "name": "g8sToken",
      "outputs": [
        {
          "internalType": "contract IERC20",
          "name": "",
          "type": "address"
        }
      ],
      "stateMutability": "view",
      "type": "function"
    },
    {
      "inputs": [],
      "name": "owner",
      "outputs": [
        {
          "internalType": "address",
          "name": "",
          "type": "address"
        }
      ],
      "stateMutability": "view",
      "type": "function"
    },
    {
      "inputs": [],
      "name": "pauseSale",
      "outputs": [],
      "stateMutability": "nonpayable",
      "type": "function"
    },
    {
      "inputs": [],
      "name": "paused",
      "outputs": [
        {
          "internalType": "bool",
          "name": "",
          "type": "bool"
        }
      ],
      "stateMutability": "view",
      "type": "function"
    },
    {
      "inputs": [],
      "name": "pricePUSD",
      "outputs": [
        {
          "internalType": "uint256",
          "name": "",
          "type": "uint256"
        }
      ],
      "stateMutability": "view",
      "type": "function"
    },
    {
      "inputs": [],
      "name": "pusdToken",
      "outputs": [
        {
          "internalType": "contract IERC20",
          "name": "",
          "type": "address"
        }
      ],
      "stateMutability": "view",
      "type": "function"
    },
    {
      "inputs": [],
      "name": "renounceOwnership",
      "outputs": [],
      "stateMutability": "nonpayable",
      "type": "function"
    },
    {
      "inputs": [],
      "name": "resumeSale",
      "outputs": [],
      "stateMutability": "nonpayable",
      "type": "function"
    },
    {
      "inputs": [
        {
          "internalType": "uint256",
          "name": "newPrice",
          "type": "uint256"
        }
      ],
      "name": "setPricePUSD",
      "outputs": [],
      "stateMutability": "nonpayable",
      "type": "function"
    },
    {
      "inputs": [],
      "name": "startTime",
      "outputs": [
        {
          "internalType": "uint256",
          "name": "",
          "type": "uint256"
        }
      ],
      "stateMutability": "view",
      "type": "function"
    },
    {
      "inputs": [
        {
          "internalType": "address",
          "name": "to",
          "type": "address"
        }
      ],
      "name": "sweepUnsold",
      "outputs": [],
      "stateMutability": "nonpayable",
      "type": "function"
    },
    {
      "inputs": [],
      "name": "tokensForSale",
      "outputs": [
        {
          "internalType": "uint256",
          "name": "",
          "type": "uint256"
        }
      ],
      "stateMutability": "view",
      "type": "function"
    },
    {
      "inputs": [],
      "name": "tokensSold",
      "outputs": [
        {
          "internalType": "uint256",
          "name": "",
          "type": "uint256"
        }
      ],
      "stateMutability": "view",
      "type": "function"
    },
    {
      "inputs": [],
      "name": "totalRaisedPUSD",
      "outputs": [
        {
          "internalType": "uint256",
          "name": "",
          "type": "uint256"
        }
      ],
      "stateMutability": "view",
      "type": "function"
    },
    {
      "inputs": [
        {
          "internalType": "address",
          "name": "newOwner",
          "type": "address"
        }
      ],
      "name": "transferOwnership",
      "outputs": [],
      "stateMutability": "nonpayable",
      "type": "function"
    },
    {
      "inputs": [
        {
          "internalType": "address",
          "name": "to",
          "type": "address"
        }
      ],
      "name": "withdrawPUSD",
      "outputs": [],
      "stateMutability": "nonpayable",
      "type": "function"
    }
  ],
  "bytecode": "0x60c06040523480156200001157600080fd5b506040516200285838038062002858833981810160405281019062000037919062000474565b33600073ffffffffffffffffffffffffffffffffffffffff168173ffffffffffffffffffffffffffffffffffffffff1603620000ad5760006040517f1e4fbdf7000000000000000000000000000000000000000000000000000000008152600401620000a4919062000521565b60405180910390fd5b620000be816200030b60201b60201c565b5060018081905550600073ffffffffffffffffffffffffffffffffffffffff168673ffffffffffffffffffffffffffffffffffffffff160362000138576040517f08c379a00000000000000000000000000000000000000000000000000000000081526004016200012f906200059f565b60405180910390fd5b600073ffffffffffffffffffffffffffffffffffffffff168573ffffffffffffffffffffffffffffffffffffffff1603620001aa576040517f08c379a0000000000000000000000000000000000000000000000000000000008152600401620001a19062000611565b60405180910390fd5b60008411620001f0576040517f08c379a0000000000000000000000000000000000000000000000000000000008152600401620001e79062000683565b60405180910390fd5b6000831162000236576040517f08c379a00000000000000000000000000000000000000000000000000000000081526004016200022d90620006f5565b60405180910390fd5b8181116200027b576040517f08c379a0000000000000000000000000000000000000000000000000000000008152600401620002729062000767565b60405180910390fd5b8573ffffffffffffffffffffffffffffffffffffffff1660808173ffffffffffffffffffffffffffffffffffffffff16815250508473ffffffffffffffffffffffffffffffffffffffff1660a08173ffffffffffffffffffffffffffffffffffffffff16815250508360038190555082600481905550816007819055508060088190555050505050505062000789565b60008060009054906101000a900473ffffffffffffffffffffffffffffffffffffffff169050816000806101000a81548173ffffffffffffffffffffffffffffffffffffffff021916908373ffffffffffffffffffffffffffffffffffffffff1602179055508173ffffffffffffffffffffffffffffffffffffffff168173ffffffffffffffffffffffffffffffffffffffff167f8be0079c531659141344cd1fd0a4f28419497f9722a3daafe3b4186f6b6457e060405160405180910390a35050565b600080fd5b600073ffffffffffffffffffffffffffffffffffffffff82169050919050565b60006200040182620003d4565b9050919050565b6200041381620003f4565b81146200041f57600080fd5b50565b600081519050620004338162000408565b92915050565b6000819050919050565b6200044e8162000439565b81146200045a57600080fd5b50565b6000815190506200046e8162000443565b92915050565b60008060008060008060c08789031215620004945762000493620003cf565b5b6000620004a489828a0162000422565b9650506020620004b789828a0162000422565b9550506040620004ca89828a016200045d565b9450506060620004dd89828a016200045d565b9350506080620004f089828a016200045d565b92505060a06200050389828a016200045d565b9150509295509295509295565b6200051b81620003f4565b82525050565b600060208201905062000538600083018462000510565b92915050565b600082825260208201905092915050565b7f6738733d30000000000000000000000000000000000000000000000000000000600082015250565b6000620005876005836200053e565b915062000594826200054f565b602082019050919050565b60006020820190508181036000830152620005ba8162000578565b9050919050565b7f707573643d300000000000000000000000000000000000000000000000000000600082015250565b6000620005f96006836200053e565b91506200060682620005c1565b602082019050919050565b600060208201905081810360008301526200062c81620005ea565b9050919050565b7f70726963653d3000000000000000000000000000000000000000000000000000600082015250565b60006200066b6007836200053e565b9150620006788262000633565b602082019050919050565b600060208201905081810360008301526200069e816200065c565b9050919050565b7f73616c653d300000000000000000000000000000000000000000000000000000600082015250565b6000620006dd6006836200053e565b9150620006ea82620006a5565b602082019050919050565b600060208201905081810360008301526200071081620006ce565b9050919050565b7f74696d6520696e76616c69640000000000000000000000000000000000000000600082015250565b60006200074f600c836200053e565b91506200075c8262000717565b602082019050919050565b60006020820190508181036000830152620007828162000740565b9050919050565b60805160a051612071620007e76000396000818161082f01528181610c8901528181610f0a01528181610ff401526110d301526000818161046f0152818161051e0152818161090e01528181610d680152610f5701526120716000f3fe608060405234801561001057600080fd5b506004361061012c5760003560e01c806355367ba9116100ad5780638da5cb5b116100715780638da5cb5b146102c3578063902bb79e146102e1578063ba65b151146102ff578063f2fde38b1461031b578063ffe81f94146103375761012c565b806355367ba9146102555780635c975abb1461025f578063715018a61461027d57806378e97925146102875780637f7614b4146102a55761012c565b806333e364cb116100f457806333e364cb146101c35780633610724e146101cd57806342e94c90146101e957806347ea6e5214610219578063518ab2a8146102375761012c565b806312aef8c3146101315780631d13f5931461014f5780631e3a2dc31461016b5780632d8c8a89146101895780633197cbb6146101a5575b600080fd5b610139610353565b60405161014691906115d0565b60405180910390f35b6101696004803603810190610164919061164e565b610359565b005b6101736105ff565b60405161018091906115d0565b60405180910390f35b6101a3600480360381019061019e91906116a7565b610605565b005b6101ad610a47565b6040516101ba91906115d0565b60405180910390f35b6101cb610a4d565b005b6101e760048036038101906101e291906116a7565b610a5f565b005b61020360048036038101906101fe919061164e565b610ea1565b60405161021091906115d0565b60405180910390f35b610221610eb9565b60405161022e91906115d0565b60405180910390f35b61023f610ebf565b60405161024c91906115d0565b60405180910390f35b61025d610ec5565b005b610267610ed7565b60405161027491906116ef565b60405180910390f35b610285610eee565b005b61028f610f02565b60405161029c91906115d0565b60405180910390f35b6102ad610f08565b6040516102ba9190611769565b60405180910390f35b6102cb610f2c565b6040516102d89190611793565b60405180910390f35b6102e9610f55565b6040516102f69190611769565b60405180910390f35b6103196004803603810190610314919061164e565b610f79565b005b6103356004803603810190610330919061164e565b6111b2565b005b610351600480360381019061034c91906116a7565b611238565b005b60045481565b6103616112ce565b60085442116103a5576040517f08c379a000000000000000000000000000000000000000000000000000000000815260040161039c9061180b565b60405180910390fd5b600073ffffffffffffffffffffffffffffffffffffffff168173ffffffffffffffffffffffffffffffffffffffff1603610414576040517f08c379a000000000000000000000000000000000000000000000000000000000815260040161040b90611877565b60405180910390fd5b600060055460045461042691906118c6565b90506000811161046b576040517f08c379a000000000000000000000000000000000000000000000000000000000815260040161046290611946565b60405180910390fd5b60007f000000000000000000000000000000000000000000000000000000000000000073ffffffffffffffffffffffffffffffffffffffff166370a08231306040518263ffffffff1660e01b81526004016104c69190611793565b602060405180830381865afa1580156104e3573d6000803e3d6000fd5b505050506040513d601f19601f82011682018060405250810190610507919061197b565b90506000818310610518578161051a565b825b90507f000000000000000000000000000000000000000000000000000000000000000073ffffffffffffffffffffffffffffffffffffffff1663a9059cbb85836040518363ffffffff1660e01b81526004016105779291906119a8565b6020604051808303816000875af1158015610596573d6000803e3d6000fd5b505050506040513d601f19601f820116820180604052508101906105ba91906119fd565b6105f9576040517f08c379a00000000000000000000000000000000000000000000000000000000081526004016105f090611a76565b60405180910390fd5b50505050565b60065481565b61060d611355565b610615610ed7565b15610655576040517f08c379a000000000000000000000000000000000000000000000000000000000815260040161064c90611ae2565b60405180910390fd5b600754421015801561066957506008544211155b6106a8576040517f08c379a000000000000000000000000000000000000000000000000000000000815260040161069f90611b4e565b60405180910390fd5b600081116106eb576040517f08c379a00000000000000000000000000000000000000000000000000000000081526004016106e290611bba565b60405180910390fd5b6000600354670de0b6b3a7640000836107049190611bda565b61070e9190611c4b565b905060008111610753576040517f08c379a000000000000000000000000000000000000000000000000000000000815260040161074a90611cc8565b60405180910390fd5b600454816005546107649190611ce8565b11156107a5576040517f08c379a000000000000000000000000000000000000000000000000000000000815260040161079c90611d68565b60405180910390fd5b80600560008282546107b79190611ce8565b9250508190555081600660008282546107d09190611ce8565b9250508190555081600960003373ffffffffffffffffffffffffffffffffffffffff1673ffffffffffffffffffffffffffffffffffffffff16815260200190815260200160002060008282546108269190611ce8565b925050819055507f000000000000000000000000000000000000000000000000000000000000000073ffffffffffffffffffffffffffffffffffffffff166323b872dd3330856040518463ffffffff1660e01b815260040161088a93929190611d88565b6020604051808303816000875af11580156108a9573d6000803e3d6000fd5b505050506040513d601f19601f820116820180604052508101906108cd91906119fd565b61090c576040517f08c379a000000000000000000000000000000000000000000000000000000000815260040161090390611e0b565b60405180910390fd5b7f000000000000000000000000000000000000000000000000000000000000000073ffffffffffffffffffffffffffffffffffffffff1663a9059cbb33836040518363ffffffff1660e01b81526004016109679291906119a8565b6020604051808303816000875af1158015610986573d6000803e3d6000fd5b505050506040513d601f19601f820116820180604052508101906109aa91906119fd565b6109e9576040517f08c379a00000000000000000000000000000000000000000000000000000000081526004016109e090611e77565b60405180910390fd5b3373ffffffffffffffffffffffffffffffffffffffff167f2bdd59583c8e5cc64165e86af2482dbe93e85c98b355b788aa592465b3f6920e838342604051610a3393929190611e97565b60405180910390a250610a4461139b565b50565b60085481565b610a556112ce565b610a5d6113a4565b565b610a67611355565b610a6f610ed7565b15610aaf576040517f08c379a0000000000000000000000000000000000000000000000000000000008152600401610aa690611ae2565b60405180910390fd5b6007544210158015610ac357506008544211155b610b02576040517f08c379a0000000000000000000000000000000000000000000000000000000008152600401610af990611b4e565b60405180910390fd5b60008111610b45576040517f08c379a0000000000000000000000000000000000000000000000000000000008152600401610b3c90611f1a565b60405180910390fd5b60045481600554610b569190611ce8565b1115610b97576040517f08c379a0000000000000000000000000000000000000000000000000000000008152600401610b8e90611d68565b60405180910390fd5b6000670de0b6b3a764000060035483610bb09190611bda565b610bba9190611c4b565b905060008111610bff576040517f08c379a0000000000000000000000000000000000000000000000000000000008152600401610bf690611bba565b60405180910390fd5b8160056000828254610c119190611ce8565b925050819055508060066000828254610c2a9190611ce8565b9250508190555080600960003373ffffffffffffffffffffffffffffffffffffffff1673ffffffffffffffffffffffffffffffffffffffff1681526020019081526020016000206000828254610c809190611ce8565b925050819055507f000000000000000000000000000000000000000000000000000000000000000073ffffffffffffffffffffffffffffffffffffffff166323b872dd3330846040518463ffffffff1660e01b8152600401610ce493929190611d88565b6020604051808303816000875af1158015610d03573d6000803e3d6000fd5b505050506040513d601f19601f82011682018060405250810190610d2791906119fd565b610d66576040517f08c379a0000000000000000000000000000000000000000000000000000000008152600401610d5d90611e0b565b60405180910390fd5b7f000000000000000000000000000000000000000000000000000000000000000073ffffffffffffffffffffffffffffffffffffffff1663a9059cbb33846040518363ffffffff1660e01b8152600401610dc19291906119a8565b6020604051808303816000875af1158015610de0573d6000803e3d6000fd5b505050506040513d601f19601f82011682018060405250810190610e0491906119fd565b610e43576040517f08c379a0000000000000000000000000000000000000000000000000000000008152600401610e3a90611e77565b60405180910390fd5b3373ffffffffffffffffffffffffffffffffffffffff167f2bdd59583c8e5cc64165e86af2482dbe93e85c98b355b788aa592465b3f6920e828442604051610e8d93929190611e97565b60405180910390a250610e9e61139b565b50565b60096020528060005260406000206000915090505481565b60035481565b60055481565b610ecd6112ce565b610ed5611407565b565b6000600260009054906101000a900460ff16905090565b610ef66112ce565b610f00600061146a565b565b60075481565b7f000000000000000000000000000000000000000000000000000000000000000081565b60008060009054906101000a900473ffffffffffffffffffffffffffffffffffffffff16905090565b7f000000000000000000000000000000000000000000000000000000000000000081565b610f816112ce565b600073ffffffffffffffffffffffffffffffffffffffff168173ffffffffffffffffffffffffffffffffffffffff1603610ff0576040517f08c379a0000000000000000000000000000000000000000000000000000000008152600401610fe790611877565b60405180910390fd5b60007f000000000000000000000000000000000000000000000000000000000000000073ffffffffffffffffffffffffffffffffffffffff166370a08231306040518263ffffffff1660e01b815260040161104b9190611793565b602060405180830381865afa158015611068573d6000803e3d6000fd5b505050506040513d601f19601f8201168201806040525081019061108c919061197b565b9050600081116110d1576040517f08c379a00000000000000000000000000000000000000000000000000000000081526004016110c890611f86565b60405180910390fd5b7f000000000000000000000000000000000000000000000000000000000000000073ffffffffffffffffffffffffffffffffffffffff1663a9059cbb83836040518363ffffffff1660e01b815260040161112c9291906119a8565b6020604051808303816000875af115801561114b573d6000803e3d6000fd5b505050506040513d601f19601f8201168201806040525081019061116f91906119fd565b6111ae576040517f08c379a00000000000000000000000000000000000000000000000000000000081526004016111a590611a76565b60405180910390fd5b5050565b6111ba6112ce565b600073ffffffffffffffffffffffffffffffffffffffff168173ffffffffffffffffffffffffffffffffffffffff160361122c5760006040517f1e4fbdf70000000000000000000000000000000000000000000000000000000081526004016112239190611793565b60405180910390fd5b6112358161146a565b50565b6112406112ce565b60008111611283576040517f08c379a000000000000000000000000000000000000000000000000000000000815260040161127a90611ff2565b60405180910390fd5b60006003549050816003819055507f945c1c4e99aa89f648fbfe3df471b916f719e16d960fcec0737d4d56bd69683881836040516112c2929190612012565b60405180910390a15050565b6112d661152e565b73ffffffffffffffffffffffffffffffffffffffff166112f4610f2c565b73ffffffffffffffffffffffffffffffffffffffff16146113535761131761152e565b6040517f118cdaa700000000000000000000000000000000000000000000000000000000815260040161134a9190611793565b60405180910390fd5b565b600260015403611391576040517f3ee5aeb500000000000000000000000000000000000000000000000000000000815260040160405180910390fd5b6002600181905550565b60018081905550565b6113ac611536565b6000600260006101000a81548160ff0219169083151502179055507f5db9ee0a495bf2e6ff9c91a7834c1ba4fdd244a5e8aa4e537bd38aeae4b073aa6113f061152e565b6040516113fd9190611793565b60405180910390a1565b61140f611576565b6001600260006101000a81548160ff0219169083151502179055507f62e78cea01bee320cd4e420270b5ea74000d11b0c9f74754ebdbfc544b05a25861145361152e565b6040516114609190611793565b60405180910390a1565b60008060009054906101000a900473ffffffffffffffffffffffffffffffffffffffff169050816000806101000a81548173ffffffffffffffffffffffffffffffffffffffff021916908373ffffffffffffffffffffffffffffffffffffffff1602179055508173ffffffffffffffffffffffffffffffffffffffff168173ffffffffffffffffffffffffffffffffffffffff167f8be0079c531659141344cd1fd0a4f28419497f9722a3daafe3b4186f6b6457e060405160405180910390a35050565b600033905090565b61153e610ed7565b611574576040517f8dfc202b00000000000000000000000000000000000000000000000000000000815260040160405180910390fd5b565b61157e610ed7565b156115b5576040517fd93c066500000000000000000000000000000000000000000000000000000000815260040160405180910390fd5b565b6000819050919050565b6115ca816115b7565b82525050565b60006020820190506115e560008301846115c1565b92915050565b600080fd5b600073ffffffffffffffffffffffffffffffffffffffff82169050919050565b600061161b826115f0565b9050919050565b61162b81611610565b811461163657600080fd5b50565b60008135905061164881611622565b92915050565b600060208284031215611664576116636115eb565b5b600061167284828501611639565b91505092915050565b611684816115b7565b811461168f57600080fd5b50565b6000813590506116a18161167b565b92915050565b6000602082840312156116bd576116bc6115eb565b5b60006116cb84828501611692565b91505092915050565b60008115159050919050565b6116e9816116d4565b82525050565b600060208201905061170460008301846116e0565b92915050565b6000819050919050565b600061172f61172a611725846115f0565b61170a565b6115f0565b9050919050565b600061174182611714565b9050919050565b600061175382611736565b9050919050565b61176381611748565b82525050565b600060208201905061177e600083018461175a565b92915050565b61178d81611610565b82525050565b60006020820190506117a86000830184611784565b92915050565b600082825260208201905092915050565b7f6e6f7420656e6465640000000000000000000000000000000000000000000000600082015250565b60006117f56009836117ae565b9150611800826117bf565b602082019050919050565b60006020820190508181036000830152611824816117e8565b9050919050565b7f746f3d3000000000000000000000000000000000000000000000000000000000600082015250565b60006118616004836117ae565b915061186c8261182b565b602082019050919050565b6000602082019050818103600083015261189081611854565b9050919050565b7f4e487b7100000000000000000000000000000000000000000000000000000000600052601160045260246000fd5b60006118d1826115b7565b91506118dc836115b7565b92508282039050818111156118f4576118f3611897565b5b92915050565b7f6e6f6e6500000000000000000000000000000000000000000000000000000000600082015250565b60006119306004836117ae565b915061193b826118fa565b602082019050919050565b6000602082019050818103600083015261195f81611923565b9050919050565b6000815190506119758161167b565b92915050565b600060208284031215611991576119906115eb565b5b600061199f84828501611966565b91505092915050565b60006040820190506119bd6000830185611784565b6119ca60208301846115c1565b9392505050565b6119da816116d4565b81146119e557600080fd5b50565b6000815190506119f7816119d1565b92915050565b600060208284031215611a1357611a126115eb565b5b6000611a21848285016119e8565b91505092915050565b7f78666572206661696c0000000000000000000000000000000000000000000000600082015250565b6000611a606009836117ae565b9150611a6b82611a2a565b602082019050919050565b60006020820190508181036000830152611a8f81611a53565b9050919050565b7f7061757365640000000000000000000000000000000000000000000000000000600082015250565b6000611acc6006836117ae565b9150611ad782611a96565b602082019050919050565b60006020820190508181036000830152611afb81611abf565b9050919050565b7f73616c65206e6f74206163746976650000000000000000000000000000000000600082015250565b6000611b38600f836117ae565b9150611b4382611b02565b602082019050919050565b60006020820190508181036000830152611b6781611b2b565b9050919050565b7f707573643d300000000000000000000000000000000000000000000000000000600082015250565b6000611ba46006836117ae565b9150611baf82611b6e565b602082019050919050565b60006020820190508181036000830152611bd381611b97565b9050919050565b6000611be5826115b7565b9150611bf0836115b7565b9250828202611bfe816115b7565b91508282048414831517611c1557611c14611897565b5b5092915050565b7f4e487b7100000000000000000000000000000000000000000000000000000000600052601260045260246000fd5b6000611c56826115b7565b9150611c61836115b7565b925082611c7157611c70611c1c565b5b828204905092915050565b7f6475737400000000000000000000000000000000000000000000000000000000600082015250565b6000611cb26004836117ae565b9150611cbd82611c7c565b602082019050919050565b60006020820190508181036000830152611ce181611ca5565b9050919050565b6000611cf3826115b7565b9150611cfe836115b7565b9250828201905080821115611d1657611d15611897565b5b92915050565b7f6578636565647320636170000000000000000000000000000000000000000000600082015250565b6000611d52600b836117ae565b9150611d5d82611d1c565b602082019050919050565b60006020820190508181036000830152611d8181611d45565b9050919050565b6000606082019050611d9d6000830186611784565b611daa6020830185611784565b611db760408301846115c1565b949350505050565b7f707573642078666572206661696c000000000000000000000000000000000000600082015250565b6000611df5600e836117ae565b9150611e0082611dbf565b602082019050919050565b60006020820190508181036000830152611e2481611de8565b9050919050565b7f6738732078666572206661696c00000000000000000000000000000000000000600082015250565b6000611e61600d836117ae565b9150611e6c82611e2b565b602082019050919050565b60006020820190508181036000830152611e9081611e54565b9050919050565b6000606082019050611eac60008301866115c1565b611eb960208301856115c1565b611ec660408301846115c1565b949350505050565b7f746f6b656e733d30000000000000000000000000000000000000000000000000600082015250565b6000611f046008836117ae565b9150611f0f82611ece565b602082019050919050565b60006020820190508181036000830152611f3381611ef7565b9050919050565b7f6e6f207075736400000000000000000000000000000000000000000000000000600082015250565b6000611f706007836117ae565b9150611f7b82611f3a565b602082019050919050565b60006020820190508181036000830152611f9f81611f63565b9050919050565b7f70726963653d3000000000000000000000000000000000000000000000000000600082015250565b6000611fdc6007836117ae565b9150611fe782611fa6565b602082019050919050565b6000602082019050818103600083015261200b81611fcf565b9050919050565b600060408201905061202760008301856115c1565b61203460208301846115c1565b939250505056fea2646970667358221220b1bd10ef7783526d360e5b810384f9db7b4dcc0e7115f58e806ef9fba42f384364736f6c63430008140033",
  "linkReferences": {},
  "deployedLinkReferences": {}
}